S01B00006563653239355F4932435F7475746F7269616C2E737265634C
S11300000C943E000C9448000C9448000C94480056
S11300100C9448000C9448000C9448000C9448003C
S11300200C9448000C9448000C9448000C9448002C
S11300300C9448000C9448000C9448000C9448001C
S11300400C9448000C9448000C9448000C9448000C
S11300500C9448000C9448000C9448000C944800FC
S11300600C9448000C9448000C9448000C944800EC
S11300700C9448000C9448000C94480011241FBEB2
S1130080CFEFD8E0DEBFCDBF0E9453000C947200C6
S11300900C94000081E08093B9008093B80084E060
S11300A08093BC0008958FEF81B98FE097E20197A8
S11300B0F1F700C0000082B182B99FEF21EE84E025
S11300C0915020408040E1F700C0000082B181607F
S11300D082B98FE097E20197F1F700C000000E9417
S10B00E04A00FFCFF894FFCFA2
S9030000FC
