:100000000C943E000C9448000C9448000C9448005A
:100010000C9448000C9448000C9448000C94480040
:100020000C9448000C9448000C9448000C94480030
:100030000C9448000C9448000C9448000C94480020
:100040000C9448000C9448000C9448000C94480010
:100050000C9448000C9448000C9448000C94480000
:100060000C9448000C9448000C9448000C944800F0
:100070000C9448000C9448000C94480011241FBEB6
:10008000CFEFD8E0DEBFCDBF0E94DC000C94310181
:100090000C94000081E08093B9008093B80084E064
:1000A0008093BC00089584EA8093BC008091BC00DA
:1000B0008823E4F7089584E98093BC000895809331
:1000C000BB0084E88093BC008091BC008823E4F7E7
:1000D0000895CF93DF93D82FC62F0E9453008D2F02
:1000E0000E945F0080E00E945F008C2F0E945F00F2
:1000F0000E945B00DF91CF910895CF93DF93D82FBB
:10010000C62F0E9453008D2F0E945F0080E40E9442
:100110005F008C2F0E945F000E945B00DF91CF91F7
:100120000895CF92DF92EF92FF920F931F93CF9398
:10013000DF937C0161E088E70E94690060E888E75E
:100140000E9469006894CC24C7F8D12CC0E0D0E0AC
:1001500023C02097D9F0CE016AE070E00E94090127
:10016000892BA1F480EEC816D10449F461E088E738
:100170000E9469006894CC24C7F8D12C03C0E0E247
:10018000CE0ED11C6C2D88E70E946900F8016081B9
:1001900088E70E947D00219687010C0F1D1FF80142
:1001A00080818111D6CFDF91CF911F910F91FF9068
:1001B000EF90DF90CF900895CF93DF93CDB7DEB768
:1001C000A8970FB6F894DEBF0FBECDBF8FEF8AB9E8
:1001D0008FE097E20197F1F700C000008BB18BB977
:1001E0009FEF21EE84E0915020408040E1F700C075
:1001F00000008BB180648BB98FE097E20197F1F733
:1002000000C000000E944A00CE0101960E949100A9
:10021000FBCF97FB072E16F4009407D077FD09D08B
:100220000E941D0107FC05D03EF4909581959F4FDB
:100230000895709561957F4F0895AA1BBB1B51E1EE
:1002400007C0AA1FBB1FA617B70710F0A61BB70B46
:10025000881F991F5A95A9F780959095BC01CD01EB
:060260000895F894FFCFA1
:00000001FF
